{
  "address": "0xC064B2b99F758B67368529FE95f16DfBEDa713Df",
  "abi": [
    {
      "anonymous": false,
      "inputs": [
        {
          "indexed": true,
          "internalType": "address",
          "name": "keeper",
          "type": "address"
        },
        {
          "indexed": false,
          "internalType": "uint256",
          "name": "endTime",
          "type": "uint256"
        }
      ],
      "name": "Cooldown",
      "type": "event"
    },
    {
      "anonymous": false,
      "inputs": [
        {
          "indexed": false,
          "internalType": "string",
          "name": "btcAddress",
          "type": "string"
        },
        {
          "indexed": false,
          "internalType": "uint256",
          "name": "required",
          "type": "uint256"
        },
        {
          "indexed": false,
          "internalType": "uint256",
          "name": "maxSatoshi",
          "type": "uint256"
        },
        {
          "indexed": false,
          "internalType": "address[]",
          "name": "keepers",
          "type": "address[]"
        }
      ],
      "name": "GroupAdded",
      "type": "event"
    },
    {
      "anonymous": false,
      "inputs": [
        {
          "indexed": false,
          "internalType": "string",
          "name": "btcAddress",
          "type": "string"
        }
      ],
      "name": "GroupDeleted",
      "type": "event"
    },
    {
      "anonymous": false,
      "inputs": [
        {
          "indexed": false,
          "internalType": "string",
          "name": "btcAddress",
          "type": "string"
        },
        {
          "indexed": false,
          "internalType": "bytes32",
          "name": "receiptId",
          "type": "bytes32"
        },
        {
          "indexed": false,
          "internalType": "address",
          "name": "sender",
          "type": "address"
        },
        {
          "indexed": false,
          "internalType": "uint256",
          "name": "amountInSatoshi",
          "type": "uint256"
        }
      ],
      "name": "MintRequested",
      "type": "event"
    },
    {
      "anonymous": false,
      "inputs": [
        {
          "indexed": true,
          "internalType": "bytes32",
          "name": "receiptId",
          "type": "bytes32"
        }
      ],
      "name": "MintVerified",
      "type": "event"
    },
    {
      "anonymous": false,
      "inputs": [
        {
          "indexed": true,
          "internalType": "address",
          "name": "previousOwner",
          "type": "address"
        },
        {
          "indexed": true,
          "internalType": "address",
          "name": "newOwner",
          "type": "address"
        }
      ],
      "name": "OwnershipTransferred",
      "type": "event"
    },
    {
      "anonymous": false,
      "inputs": [
        {
          "indexed": false,
          "internalType": "address",
          "name": "account",
          "type": "address"
        }
      ],
      "name": "Paused",
      "type": "event"
    },
    {
      "anonymous": false,
      "inputs": [
        {
          "indexed": false,
          "internalType": "address",
          "name": "account",
          "type": "address"
        }
      ],
      "name": "Unpaused",
      "type": "event"
    },
    {
      "inputs": [],
      "name": "EIP712_DOMAIN_HASH",
      "outputs": [
        {
          "internalType": "bytes32",
          "name": "",
          "type": "bytes32"
        }
      ],
      "stateMutability": "view",
      "type": "function"
    },
    {
      "inputs": [],
      "name": "KEEPER_COOLDOWN",
      "outputs": [
        {
          "internalType": "uint256",
          "name": "",
          "type": "uint256"
        }
      ],
      "stateMutability": "view",
      "type": "function"
    },
    {
      "inputs": [
        {
          "internalType": "string",
          "name": "btcAddress",
          "type": "string"
        },
        {
          "internalType": "uint256",
          "name": "required",
          "type": "uint256"
        },
        {
          "internalType": "uint256",
          "name": "maxSatoshi",
          "type": "uint256"
        },
        {
          "internalType": "address[]",
          "name": "keepers",
          "type": "address[]"
        }
      ],
      "name": "addGroup",
      "outputs": [],
      "stateMutability": "nonpayable",
      "type": "function"
    },
    {
      "inputs": [],
      "name": "chainId",
      "outputs": [
        {
          "internalType": "uint256",
          "name": "",
          "type": "uint256"
        }
      ],
      "stateMutability": "view",
      "type": "function"
    },
    {
      "inputs": [
        {
          "internalType": "address",
          "name": "keeper",
          "type": "address"
        },
        {
          "internalType": "uint256",
          "name": "chillTime",
          "type": "uint256"
        }
      ],
      "name": "chill",
      "outputs": [],
      "stateMutability": "nonpayable",
      "type": "function"
    },
    {
      "inputs": [
        {
          "internalType": "string",
          "name": "btcAddress",
          "type": "string"
        }
      ],
      "name": "deleteGroup",
      "outputs": [],
      "stateMutability": "nonpayable",
      "type": "function"
    },
    {
      "inputs": [],
      "name": "eBTC",
      "outputs": [
        {
          "internalType": "contract IEBTC",
          "name": "",
          "type": "address"
        }
      ],
      "stateMutability": "view",
      "type": "function"
    },
    {
      "inputs": [
        {
          "internalType": "address",
          "name": "keeper",
          "type": "address"
        }
      ],
      "name": "getCooldownTime",
      "outputs": [
        {
          "internalType": "uint256",
          "name": "",
          "type": "uint256"
        }
      ],
      "stateMutability": "view",
      "type": "function"
    },
    {
      "inputs": [
        {
          "internalType": "string",
          "name": "btcAddress",
          "type": "string"
        }
      ],
      "name": "getGroup",
      "outputs": [
        {
          "internalType": "uint256",
          "name": "",
          "type": "uint256"
        },
        {
          "internalType": "uint256",
          "name": "",
          "type": "uint256"
        },
        {
          "internalType": "uint256",
          "name": "",
          "type": "uint256"
        }
      ],
      "stateMutability": "view",
      "type": "function"
    },
    {
      "inputs": [
        {
          "internalType": "string",
          "name": "btcAddress",
          "type": "string"
        }
      ],
      "name": "getGroupAllowance",
      "outputs": [
        {
          "internalType": "uint256",
          "name": "",
          "type": "uint256"
        }
      ],
      "stateMutability": "view",
      "type": "function"
    },
    {
      "inputs": [
        {
          "internalType": "bytes32",
          "name": "receiptId",
          "type": "bytes32"
        }
      ],
      "name": "getReceipt",
      "outputs": [
        {
          "components": [
            {
              "internalType": "address",
              "name": "recipient",
              "type": "address"
            },
            {
              "internalType": "uint256",
              "name": "amountInSatoshi",
              "type": "uint256"
            },
            {
              "internalType": "uint256",
              "name": "createTimestamp",
              "type": "uint256"
            },
            {
              "internalType": "bytes32",
              "name": "txId",
              "type": "bytes32"
            },
            {
              "internalType": "uint256",
              "name": "height",
              "type": "uint256"
            },
            {
              "internalType": "enum IDeCusSystem.Status",
              "name": "status",
              "type": "uint8"
            },
            {
              "internalType": "string",
              "name": "btcAddress",
              "type": "string"
            }
          ],
          "internalType": "struct IDeCusSystem.Receipt",
          "name": "",
          "type": "tuple"
        }
      ],
      "stateMutability": "view",
      "type": "function"
    },
    {
      "inputs": [
        {
          "internalType": "string",
          "name": "btcAddress",
          "type": "string"
        },
        {
          "internalType": "address",
          "name": "recipient",
          "type": "address"
        },
        {
          "internalType": "uint256",
          "name": "identifier",
          "type": "uint256"
        }
      ],
      "name": "getReceiptId",
      "outputs": [
        {
          "internalType": "bytes32",
          "name": "",
          "type": "bytes32"
        }
      ],
      "stateMutability": "pure",
      "type": "function"
    },
    {
      "inputs": [
        {
          "internalType": "address",
          "name": "_eBTC",
          "type": "address"
        },
        {
          "internalType": "address",
          "name": "_registry",
          "type": "address"
        }
      ],
      "name": "initialize",
      "outputs": [],
      "stateMutability": "nonpayable",
      "type": "function"
    },
    {
      "inputs": [],
      "name": "keeperRegistry",
      "outputs": [
        {
          "internalType": "contract IKeeperRegistry",
          "name": "",
          "type": "address"
        }
      ],
      "stateMutability": "view",
      "type": "function"
    },
    {
      "inputs": [
        {
          "internalType": "string",
          "name": "btcAddress",
          "type": "string"
        }
      ],
      "name": "listGroupKeeper",
      "outputs": [
        {
          "internalType": "address[]",
          "name": "",
          "type": "address[]"
        }
      ],
      "stateMutability": "view",
      "type": "function"
    },
    {
      "inputs": [],
      "name": "minKeeperSatoshi",
      "outputs": [
        {
          "internalType": "uint256",
          "name": "",
          "type": "uint256"
        }
      ],
      "stateMutability": "view",
      "type": "function"
    },
    {
      "inputs": [],
      "name": "owner",
      "outputs": [
        {
          "internalType": "address",
          "name": "",
          "type": "address"
        }
      ],
      "stateMutability": "view",
      "type": "function"
    },
    {
      "inputs": [],
      "name": "paused",
      "outputs": [
        {
          "internalType": "bool",
          "name": "",
          "type": "bool"
        }
      ],
      "stateMutability": "view",
      "type": "function"
    },
    {
      "inputs": [
        {
          "internalType": "bytes32",
          "name": "message",
          "type": "bytes32"
        },
        {
          "internalType": "uint8",
          "name": "packedV",
          "type": "uint8"
        },
        {
          "internalType": "bytes32",
          "name": "r",
          "type": "bytes32"
        },
        {
          "internalType": "bytes32",
          "name": "s",
          "type": "bytes32"
        }
      ],
      "name": "recoverSigner",
      "outputs": [
        {
          "internalType": "address",
          "name": "",
          "type": "address"
        }
      ],
      "stateMutability": "pure",
      "type": "function"
    },
    {
      "inputs": [],
      "name": "renounceOwnership",
      "outputs": [],
      "stateMutability": "nonpayable",
      "type": "function"
    },
    {
      "inputs": [
        {
          "internalType": "string",
          "name": "btcAddress",
          "type": "string"
        },
        {
          "internalType": "uint256",
          "name": "amountInSatoshi",
          "type": "uint256"
        },
        {
          "internalType": "uint256",
          "name": "identifier",
          "type": "uint256"
        }
      ],
      "name": "requestMint",
      "outputs": [],
      "stateMutability": "nonpayable",
      "type": "function"
    },
    {
      "inputs": [
        {
          "internalType": "address",
          "name": "newOwner",
          "type": "address"
        }
      ],
      "name": "transferOwnership",
      "outputs": [],
      "stateMutability": "nonpayable",
      "type": "function"
    },
    {
      "inputs": [
        {
          "internalType": "uint256",
          "name": "",
          "type": "uint256"
        }
      ],
      "name": "verified",
      "outputs": [
        {
          "internalType": "bool",
          "name": "",
          "type": "bool"
        }
      ],
      "stateMutability": "view",
      "type": "function"
    },
    {
      "inputs": [
        {
          "components": [
            {
              "internalType": "bytes32",
              "name": "receiptId",
              "type": "bytes32"
            },
            {
              "internalType": "bytes32",
              "name": "txId",
              "type": "bytes32"
            },
            {
              "internalType": "uint256",
              "name": "height",
              "type": "uint256"
            }
          ],
          "internalType": "struct LibRequest.MintRequest",
          "name": "request",
          "type": "tuple"
        },
        {
          "internalType": "address[]",
          "name": "keepers",
          "type": "address[]"
        },
        {
          "internalType": "bytes32[]",
          "name": "r",
          "type": "bytes32[]"
        },
        {
          "internalType": "bytes32[]",
          "name": "s",
          "type": "bytes32[]"
        },
        {
          "internalType": "uint256",
          "name": "packedV",
          "type": "uint256"
        }
      ],
      "name": "verifyMint",
      "outputs": [],
      "stateMutability": "nonpayable",
      "type": "function"
    }
  ],
  "transactionHash": "0x85361e29b6114e45dfda206546b53085a64f3f39c80cde2716a1005f94062ca1",
  "args": [],
  "solcInputHash": "bacc995f75dbe5332b0cad8b3c08e62c",
  "bytecode": "0x6080604052600280546001600160a01b03191630179055620186a06005553480156200002a57600080fd5b5060006200003762000174565b600080546001600160a01b0319166001600160a01b0383169081178255604051929350917f8be0079c531659141344cd1fd0a4f28419497f9722a3daafe3b4186f6b6457e0908290a3506000805460ff60a01b19169055466001819055604051620000a59060200162000178565b60408051601f19818403018152828252805160209182012083830183526005845264446543757360d81b938201939093528151808301835260038152620312e360ec1b9082015260015460025492516200015294937fb1dca8a8bd71a82819d7e85f2c0b213421335de1045a7350e1d15b671e65155e937fe6bbd6277e1bf288eed5e8d1780f9a50b239e86b153736bceebccf4ea79d90b393926001600160a01b03909216910162000207565b60408051601f1981840301815291905280516020909101206003555062000233565b3390565b6c08a92a06e626488dedac2d2dc5609b1b81526b1cdd1c9a5b99c81b985b594b60a21b600d8201526e1cdd1c9a5b99c81d995c9cda5bdb8b608a1b60198201526f1d5a5b9d0c8d4d8818da185a5b92590b60821b60288201527f6164647265737320766572696679696e67436f6e7472616374000000000000006038820152602960f81b605182015260520190565b9485526020850193909352604084019190915260608301526001600160a01b0316608082015260a00190565b611f7080620002436000396000f3fe608060405234801561001057600080fd5b50600436106101585760003560e01c80639522dd70116100c3578063c976966a1161007c578063c976966a146102a9578063d1176107146102bc578063d45167d0146102cf578063e306f779146102e2578063f2fde38b146102ea578063fcecbb61146102fd57610158565b80639522dd70146102315780639a8a059214610251578063abef281e14610259578063ad95033a1461027b578063c5a746bf14610283578063c764654c1461029657610158565b8063715018a611610115578063715018a6146101eb5780637f7bcb62146101f357806383e22774146101fb57806385c95a1e146102035780638da5cb5b146102165780639123cdfc1461021e57610158565b806309e16c431461015d5780631a9425c1146101865780632e8b92a9146101a6578063485cc955146101bb5780635c975abb146101ce5780635f447e04146101d6575b600080fd5b61017061016b3660046115c5565b61031d565b60405161017d919061196b565b60405180910390f35b6101996101943660046114c4565b610353565b60405161017d9190611960565b6101b96101b436600461158a565b610368565b005b6101b96101c9366004611466565b610474565b6101996104a2565b6101de6104b2565b60405161017d91906118e6565b6101b96104c1565b61017061054a565b6101de610550565b61017061021136600461144b565b61055f565b6101de61057a565b6101b961022c366004611628565b610589565b61024461023f36600461151d565b610624565b60405161017d9190611913565b6101706106f5565b61026c61026736600461151d565b6106fb565b60405161017d93929190611e93565b61017061073d565b6101b9610291366004611674565b610743565b6101b96102a43660046116ef565b61091b565b6101b96102b736600461149a565b610a0e565b6101706102ca36600461158a565b610a64565b6101de6102dd3660046114dc565b610aa9565b610170610b04565b6101b96102f836600461144b565b610b0a565b61031061030b3660046114c4565b610bca565b60405161017d9190611e27565b600083838360405160200161033493929190611837565b6040516020818303038152906040528051906020012090509392505050565b60046020526000908152604090205460ff1681565b610370610ceb565b6001600160a01b031661038161057a565b6001600160a01b0316146103b05760405162461bcd60e51b81526004016103a790611d2c565b60405180910390fd5b6008816040516103c0919061181b565b9081526020016040518091039020600201546000146103f15760405162461bcd60e51b81526004016103a790611c89565b600881604051610401919061181b565b90815260405190819003602001902060008082556001820181905560028201819055600382018181816104348282611291565b5050505050507feacdb5801d8160882398b78a544379ff28cbe8bd4de76aca39013c89311e00d58160405161046991906119ad565b60405180910390a150565b600680546001600160a01b039384166001600160a01b03199182161790915560078054929093169116179055565b600054600160a01b900460ff1690565b6006546001600160a01b031681565b6104c9610ceb565b6001600160a01b03166104da61057a565b6001600160a01b0316146105005760405162461bcd60e51b81526004016103a790611d2c565b600080546040516001600160a01b03909116907f8be0079c531659141344cd1fd0a4f28419497f9722a3daafe3b4186f6b6457e0908390a3600080546001600160a01b0319169055565b61025881565b6007546001600160a01b031681565b6001600160a01b03166000908152600a602052604090205490565b6000546001600160a01b031690565b600082116105a95760405162461bcd60e51b81526004016103a790611df0565b816105b384610a64565b10156105d15760405162461bcd60e51b81526004016103a790611dc0565b60006105df33858585610cef565b90507fb4a6e689c14ed82864bcff18a4f88852c4702039b9ecaa30fa19b78c62a640748482338660405161061694939291906119c0565b60405180910390a150505050565b606060006008848460405161063a92919061180b565b90815260200160405180910390209050606061065882600301610d99565b67ffffffffffffffff8111801561066e57600080fd5b50604051908082528060200260200182016040528015610698578160200160208202803683370190505b50905060005b6106aa83600301610d99565b8110156106ea576106be6003840182610da4565b8282815181106106ca57fe5b6001600160a01b039092166020928302919091019091015260010161069e565b509150505b92915050565b60015481565b6000806000806008868660405161071392919061180b565b90815260405190819003602001902080546001820154600290920154909891975095509350505050565b60055481565b61074b610ceb565b6001600160a01b031661075c61057a565b6001600160a01b0316146107825760405162461bcd60e51b81526004016103a790611d2c565b6000600886604051610794919061181b565b9081526020016040518091039020905080600101546000146107c85760405162461bcd60e51b81526004016103a790611bbf565b8481556001810184905560005b828110156108d3576005546007546001600160a01b03166397904e428686858181106107fd57fe5b9050602002016020810190610812919061144b565b6040518263ffffffff1660e01b815260040161082e91906118e6565b60206040518083038186803b15801561084657600080fd5b505afa15801561085a573d6000803e3d6000fd5b505050506040513d601f19601f8201168201806040525081019061087e91906117c7565b101561089c5760405162461bcd60e51b81526004016103a790611b88565b6108ca8484838181106108ab57fe5b90506020020160208101906108c0919061144b565b6003840190610db0565b506001016107d5565b507f318cdd783f12822d86ff4e2e147ae395b85e9e163d0f2f36eefe022364c06213868686868660405161090b9594939291906119f8565b60405180910390a1505050505050565b87516000908152600960205260408082209051909190600890610942906006850190611876565b90815260405190819003602001902090506001600583015460ff16600481111561096857fe5b146109855760405162461bcd60e51b81526004016103a790611c52565b80548810156109a65760405162461bcd60e51b81526004016103a790611c26565b6109ba8a826003018b8b8b8b8b8b8b610dc5565b6109ce81838c602001518d60400151610e95565b6109d782610eff565b89516040517f8d1d1df58b9c8d102f7ceeada29d0bfe7fe55ce5ba1a2ae27c51eb024c95749790600090a250505050505050505050565b610a16610ceb565b6001600160a01b0316610a2761057a565b6001600160a01b031614610a4d5760405162461bcd60e51b81526004016103a790611d2c565b610a6082610a5b4284610f7f565b610fa4565b5050565b600080600883604051610a77919061181b565b90815260200160405180910390209050610aa281600201548260010154610ffb90919063ffffffff16565b9392505050565b600060018585858560405160008152602001604052604051610ace949392919061198f565b6020604051602081039080840390855afa158015610af0573d6000803e3d6000fd5b5050604051601f1901519695505050505050565b60035481565b610b12610ceb565b6001600160a01b0316610b2361057a565b6001600160a01b031614610b495760405162461bcd60e51b81526004016103a790611d2c565b6001600160a01b038116610b6f5760405162461bcd60e51b81526004016103a790611ad4565b600080546040516001600160a01b03808516939216917f8be0079c531659141344cd1fd0a4f28419497f9722a3daafe3b4186f6b6457e091a3600080546001600160a01b0319166001600160a01b0392909216919091179055565b610bd26112b2565b600082815260096020908152604091829020825160e08101845281546001600160a01b03168152600182015492810192909252600281015492820192909252600382015460608201526004808301546080830152600583015491929160a084019160ff90911690811115610c4257fe5b6004811115610c4d57fe5b815260068201805460408051602060026001851615610100026000190190941693909304601f8101849004840282018401909252818152938201939291830182828015610cdb5780601f10610cb057610100808354040283529160200191610cdb565b820191906000526020600020905b815481529060010190602001808311610cbe57829003601f168201915b5050505050815250509050919050565b3390565b600080610cfd85878561031d565b60008181526009602052604090209091506002600582015460ff166004811115610d2357fe5b10610d405760405162461bcd60e51b81526004016103a790611cc0565b80546001600160a01b0319166001600160a01b0388161781558551610d6e90600683019060208901906112ef565b50600180820186905560058201805460ff191682800217905550426002909101559050949350505050565b60006106ef82611023565b6000610aa28383611027565b6000610aa2836001600160a01b03841661106c565b6000610dd342610258610f7f565b905060005b87811015610e77576000898983818110610dee57fe5b9050602002016020810190610e03919061144b565b6001600160a01b0381166000908152600a6020526040902054909150421015610e3e5760405162461bcd60e51b81526004016103a790611d61565b610e488b826110b6565b610e645760405162461bcd60e51b81526004016103a790611d90565b610e6e8184610fa4565b50600101610dd8565b50610e888a898989898989896110cb565b5050505050505050505050565b60058301805460ff191660029081179091556003840183905560048401829055600184015490850154600091610ecb9190610f7f565b90508460010154811115610ef15760405162461bcd60e51b81526004016103a790611b1a565b600290940193909355505050565b60065481546001600160a01b03918216916340c10f199116610f2d610f2261117e565b600186015490611187565b6040518363ffffffff1660e01b8152600401610f4a9291906118fa565b600060405180830381600087803b158015610f6457600080fd5b505af1158015610f78573d6000803e3d6000fd5b5050505050565b600082820183811015610aa25760405162461bcd60e51b81526004016103a790611b51565b6001600160a01b0382166000818152600a602052604090819020839055517f8a05f911d8ab7fc50fec37ef4ba7f9bfcb1a3c191c81dcd824ad0946c4e20d6590610fef90849061196b565b60405180910390a25050565b60008282111561101d5760405162461bcd60e51b81526004016103a790611bef565b50900390565b5490565b8154600090821061104a5760405162461bcd60e51b81526004016103a790611a67565b82600001828154811061105957fe5b9060005260206000200154905092915050565b600061107883836111c1565b6110ae575081546001818101845560008481526020808220909301849055845484825282860190935260409020919091556106ef565b5060006106ef565b6000610aa2836001600160a01b0384166111c1565b6000805b8781101561116e578888828181106110e357fe5b90506020020160208101906110f8919061144b565b6001600160a01b031661113961110d8c6111d9565b858a8a8681811061111a57fe5b9050602002013589898781811061112d57fe5b90506020020135610aa9565b6001600160a01b03161461115f5760405162461bcd60e51b81526004016103a790611aa9565b60089290921c916001016110cf565b5060019998505050505050505050565b6402540be40090565b600082611196575060006106ef565b828202828482816111a357fe5b0414610aa25760405162461bcd60e51b81526004016103a790611ceb565b60009081526001919091016020526040902054151590565b60006106ef6111e7836111ec565b61126c565b60006040518060600160405280603a8152602001611f01603a9139604051602001611217919061181b565b6040516020818303038152906040528051906020012082600001518360200151846040015160405160200161124f9493929190611974565b604051602081830303815290604052805190602001209050919050565b60035460405161190160f01b8152600281019190915260228101919091526042902090565b50805460008255906000526020600020908101906112af919061136d565b50565b6040805160e08101825260008082526020820181905291810182905260608101829052608081018290529060a08201908152602001606081525090565b828054600181600116156101000203166002900490600052602060002090601f016020900481019282601f1061133057805160ff191683800117855561135d565b8280016001018555821561135d579182015b8281111561135d578251825591602001919060010190611342565b5061136992915061136d565b5090565b5b80821115611369576000815560010161136e565b80356001600160a01b03811681146106ef57600080fd5b60008083601f8401126113aa578182fd5b50813567ffffffffffffffff8111156113c1578182fd5b60208301915083602080830285010111156113db57600080fd5b9250929050565b600082601f8301126113f2578081fd5b813567ffffffffffffffff811115611408578182fd5b61141b601f8201601f1916602001611ea9565b915080825283602082850101111561143257600080fd5b8060208401602084013760009082016020015292915050565b60006020828403121561145c578081fd5b610aa28383611382565b60008060408385031215611478578081fd5b6114828484611382565b91506114918460208501611382565b90509250929050565b600080604083850312156114ac578182fd5b6114b68484611382565b946020939093013593505050565b6000602082840312156114d5578081fd5b5035919050565b600080600080608085870312156114f1578182fd5b84359350602085013560ff81168114611508578283fd5b93969395505050506040820135916060013590565b6000806020838503121561152f578182fd5b823567ffffffffffffffff80821115611546578384fd5b818501915085601f830112611559578384fd5b813581811115611567578485fd5b866020828501011115611578578485fd5b60209290920196919550909350505050565b60006020828403121561159b578081fd5b813567ffffffffffffffff8111156115b1578182fd5b6115bd848285016113e2565b949350505050565b6000806000606084860312156115d9578283fd5b833567ffffffffffffffff8111156115ef578384fd5b6115fb868287016113e2565b93505060208401356001600160a01b0381168114611617578283fd5b929592945050506040919091013590565b60008060006060848603121561163c578283fd5b833567ffffffffffffffff811115611652578384fd5b61165e868287016113e2565b9660208601359650604090950135949350505050565b60008060008060006080868803121561168b578081fd5b853567ffffffffffffffff808211156116a2578283fd5b6116ae89838a016113e2565b9650602088013595506040880135945060608801359150808211156116d1578283fd5b506116de88828901611399565b969995985093965092949392505050565b600080600080600080600080888a0360e081121561170b578384fd5b6060811215611718578384fd5b506117236060611ea9565b8935815260208a0135602082015260408a0135604082015280985050606089013567ffffffffffffffff80821115611759578485fd5b6117658c838d01611399565b909950975060808b013591508082111561177d578485fd5b6117898c838d01611399565b909750955060a08b01359150808211156117a1578485fd5b506117ae8b828c01611399565b999c989b50969995989497949560c00135949350505050565b6000602082840312156117d8578081fd5b5051919050565b600081518084526117f7816020860160208601611ed0565b601f01601f19169290920160200192915050565b6000828483379101908152919050565b6000825161182d818460208701611ed0565b9190910192915050565b60008451611849818460208901611ed0565b60609490941b6bffffffffffffffffffffffff191691909301908152601481019190915260340192915050565b600080835460018082166000811461189557600181146118ac576118db565b60ff198316865260028304607f16860193506118db565b600283048786526020808720875b838110156118d35781548a8201529085019082016118ba565b505050860193505b509195945050505050565b6001600160a01b0391909116815260200190565b6001600160a01b03929092168252602082015260400190565b6020808252825182820181905260009190848201906040850190845b818110156119545783516001600160a01b03168352928401929184019160010161192f565b50909695505050505050565b901515815260200190565b90815260200190565b93845260208401929092526040830152606082015260800190565b93845260ff9290921660208401526040830152606082015260800190565b600060208252610aa260208301846117df565b6000608082526119d360808301876117df565b6020830195909552506001600160a01b03929092166040830152606090910152919050565b600060808252611a0b60808301886117df565b602083810188905260408401879052838203606085015284825285918101835b86811015611a59578383016001600160a01b03611a488287611382565b168352935090820190600101611a2b565b509998505050505050505050565b60208082526022908201527f456e756d657261626c655365743a20696e646578206f7574206f6620626f756e604082015261647360f01b606082015260800190565b602080825260119082015270696e76616c6964207369676e617475726560781b604082015260600190565b60208082526026908201527f4f776e61626c653a206e6577206f776e657220697320746865207a65726f206160408201526564647265737360d01b606082015260800190565b6020808252601b908201527f616d6f756e7420657863656564206d617820616c6c6f77616e63650000000000604082015260600190565b6020808252601b908201527f536166654d6174683a206164646974696f6e206f766572666c6f770000000000604082015260600190565b6020808252601f908201527f6b656570726520686173206e6f7420656e6f75676820636f6c6c617465726c00604082015260600190565b60208082526016908201527519dc9bdd5c081a5908185b1c9958591e48195e1a5cdd60521b604082015260600190565b6020808252601e908201527f536166654d6174683a207375627472616374696f6e206f766572666c6f770000604082015260600190565b6020808252601290820152716e6f7420656e6f756768206b65657065727360701b604082015260600190565b60208082526018908201527f7265636569707420616c72656164792076657269666965640000000000000000604082015260600190565b6020808252601a908201527f67726f75702062616c616e6365206973206e6f7420656d707479000000000000604082015260600190565b6020808252601190820152707265636569707420697320696e2075736560781b604082015260600190565b60208082526021908201527f536166654d6174683a206d756c7469706c69636174696f6e206f766572666c6f6040820152607760f81b606082015260800190565b6020808252818101527f4f776e61626c653a2063616c6c6572206973206e6f7420746865206f776e6572604082015260600190565b60208082526015908201527435b2b2b832b91034b99034b71031b7b7b63237bbb760591b604082015260600190565b60208082526016908201527506b6565706572206973206e6f7420696e2067726f75760541b604082015260600190565b6020808252601690820152756578636565642067726f757020616c6c6f77616e636560501b604082015260600190565b60208082526017908201527f616d6f756e742030206973206e6f7420616c6c6f776564000000000000000000604082015260600190565b60006020825260018060a01b038351166020830152602083015160408301526040830151606083015260608301516080830152608083015160a083015260a083015160058110611e7357fe5b8060c08401525060c083015160e0808401526115bd6101008401826117df565b9283526020830191909152604082015260600190565b60405181810167ffffffffffffffff81118282101715611ec857600080fd5b604052919050565b60005b83811015611eeb578181015183820152602001611ed3565b83811115611efa576000848401525b5050505056fe4d696e74526571756573742862797465733332207265636569707449642c6279746573333220747849642c75696e743235362068656967687429a26469706673582212200421b79f464fb44c3502b2f921ffe1aae9d2c5e90d75478f4ea95e161477153d64736f6c634300060c0033",
  "devdoc": {
    "kind": "dev",
    "methods": {
      "owner()": {
        "details": "Returns the address of the current owner."
      },
      "paused()": {
        "details": "Returns true if the contract is paused, and false otherwise."
      },
      "renounceOwnership()": {
        "details": "Leaves the contract without owner. It will not be possible to call `onlyOwner` functions anymore. Can only be called by the current owner. NOTE: Renouncing ownership will leave the contract without an owner, thereby removing any functionality that is only available to the owner."
      },
      "transferOwnership(address)": {
        "details": "Transfers ownership of the contract to a new account (`newOwner`). Can only be called by the current owner."
      }
    },
    "version": 1
  },
  "userdoc": {
    "kind": "user",
    "methods": {},
    "version": 1
  },
  "storageLayout": {
    "storage": [
      {
        "astId": 290,
        "contract": "contracts/DeCusSystem.sol:DeCusSystem",
        "label": "_owner",
        "offset": 0,
        "slot": "0",
        "type": "t_address"
      },
      {
        "astId": 2326,
        "contract": "contracts/DeCusSystem.sol:DeCusSystem",
        "label": "_paused",
        "offset": 20,
        "slot": "0",
        "type": "t_bool"
      },
      {
        "astId": 3988,
        "contract": "contracts/DeCusSystem.sol:DeCusSystem",
        "label": "chainId",
        "offset": 0,
        "slot": "1",
        "type": "t_uint256"
      },
      {
        "astId": 3994,
        "contract": "contracts/DeCusSystem.sol:DeCusSystem",
        "label": "verifyingContract",
        "offset": 0,
        "slot": "2",
        "type": "t_address"
      },
      {
        "astId": 4015,
        "contract": "contracts/DeCusSystem.sol:DeCusSystem",
        "label": "EIP712_DOMAIN_HASH",
        "offset": 0,
        "slot": "3",
        "type": "t_bytes32"
      },
      {
        "astId": 4135,
        "contract": "contracts/DeCusSystem.sol:DeCusSystem",
        "label": "verified",
        "offset": 0,
        "slot": "4",
        "type": "t_mapping(t_uint256,t_bool)"
      },
      {
        "astId": 2438,
        "contract": "contracts/DeCusSystem.sol:DeCusSystem",
        "label": "minKeeperSatoshi",
        "offset": 0,
        "slot": "5",
        "type": "t_uint256"
      },
      {
        "astId": 2440,
        "contract": "contracts/DeCusSystem.sol:DeCusSystem",
        "label": "eBTC",
        "offset": 0,
        "slot": "6",
        "type": "t_contract(IEBTC)3819"
      },
      {
        "astId": 2442,
        "contract": "contracts/DeCusSystem.sol:DeCusSystem",
        "label": "keeperRegistry",
        "offset": 0,
        "slot": "7",
        "type": "t_contract(IKeeperRegistry)3874"
      },
      {
        "astId": 2446,
        "contract": "contracts/DeCusSystem.sol:DeCusSystem",
        "label": "groups",
        "offset": 0,
        "slot": "8",
        "type": "t_mapping(t_string_memory_ptr,t_struct(Group)3736_storage)"
      },
      {
        "astId": 2450,
        "contract": "contracts/DeCusSystem.sol:DeCusSystem",
        "label": "receipts",
        "offset": 0,
        "slot": "9",
        "type": "t_mapping(t_bytes32,t_struct(Receipt)3757_storage)"
      },
      {
        "astId": 2454,
        "contract": "contracts/DeCusSystem.sol:DeCusSystem",
        "label": "cooldownUntil",
        "offset": 0,
        "slot": "10",
        "type": "t_mapping(t_address,t_uint256)"
      }
    ],
    "types": {
      "t_address": {
        "encoding": "inplace",
        "label": "address",
        "numberOfBytes": "20"
      },
      "t_array(t_bytes32)dyn_storage": {
        "base": "t_bytes32",
        "encoding": "dynamic_array",
        "label": "bytes32[]",
        "numberOfBytes": "32"
      },
      "t_bool": {
        "encoding": "inplace",
        "label": "bool",
        "numberOfBytes": "1"
      },
      "t_bytes32": {
        "encoding": "inplace",
        "label": "bytes32",
        "numberOfBytes": "32"
      },
      "t_contract(IEBTC)3819": {
        "encoding": "inplace",
        "label": "contract IEBTC",
        "numberOfBytes": "20"
      },
      "t_contract(IKeeperRegistry)3874": {
        "encoding": "inplace",
        "label": "contract IKeeperRegistry",
        "numberOfBytes": "20"
      },
      "t_enum(Status)3742": {
        "encoding": "inplace",
        "label": "enum IDeCusSystem.Status",
        "numberOfBytes": "1"
      },
      "t_mapping(t_address,t_uint256)": {
        "encoding": "mapping",
        "key": "t_address",
        "label": "mapping(address => uint256)",
        "numberOfBytes": "32",
        "value": "t_uint256"
      },
      "t_mapping(t_bytes32,t_struct(Receipt)3757_storage)": {
        "encoding": "mapping",
        "key": "t_bytes32",
        "label": "mapping(bytes32 => struct IDeCusSystem.Receipt)",
        "numberOfBytes": "32",
        "value": "t_struct(Receipt)3757_storage"
      },
      "t_mapping(t_bytes32,t_uint256)": {
        "encoding": "mapping",
        "key": "t_bytes32",
        "label": "mapping(bytes32 => uint256)",
        "numberOfBytes": "32",
        "value": "t_uint256"
      },
      "t_mapping(t_string_memory_ptr,t_struct(Group)3736_storage)": {
        "encoding": "mapping",
        "key": "t_string_memory_ptr",
        "label": "mapping(string => struct IDeCusSystem.Group)",
        "numberOfBytes": "32",
        "value": "t_struct(Group)3736_storage"
      },
      "t_mapping(t_uint256,t_bool)": {
        "encoding": "mapping",
        "key": "t_uint256",
        "label": "mapping(uint256 => bool)",
        "numberOfBytes": "32",
        "value": "t_bool"
      },
      "t_string_memory_ptr": {
        "encoding": "bytes",
        "label": "string",
        "numberOfBytes": "32"
      },
      "t_string_storage": {
        "encoding": "bytes",
        "label": "string",
        "numberOfBytes": "32"
      },
      "t_struct(AddressSet)2092_storage": {
        "encoding": "inplace",
        "label": "struct EnumerableSet.AddressSet",
        "members": [
          {
            "astId": 2091,
            "contract": "contracts/DeCusSystem.sol:DeCusSystem",
            "label": "_inner",
            "offset": 0,
            "slot": "0",
            "type": "t_struct(Set)1827_storage"
          }
        ],
        "numberOfBytes": "64"
      },
      "t_struct(Group)3736_storage": {
        "encoding": "inplace",
        "label": "struct IDeCusSystem.Group",
        "members": [
          {
            "astId": 3729,
            "contract": "contracts/DeCusSystem.sol:DeCusSystem",
            "label": "required",
            "offset": 0,
            "slot": "0",
            "type": "t_uint256"
          },
          {
            "astId": 3731,
            "contract": "contracts/DeCusSystem.sol:DeCusSystem",
            "label": "maxSatoshi",
            "offset": 0,
            "slot": "1",
            "type": "t_uint256"
          },
          {
            "astId": 3733,
            "contract": "contracts/DeCusSystem.sol:DeCusSystem",
            "label": "currSatoshi",
            "offset": 0,
            "slot": "2",
            "type": "t_uint256"
          },
          {
            "astId": 3735,
            "contract": "contracts/DeCusSystem.sol:DeCusSystem",
            "label": "keeperSet",
            "offset": 0,
            "slot": "3",
            "type": "t_struct(AddressSet)2092_storage"
          }
        ],
        "numberOfBytes": "160"
      },
      "t_struct(Receipt)3757_storage": {
        "encoding": "inplace",
        "label": "struct IDeCusSystem.Receipt",
        "members": [
          {
            "astId": 3744,
            "contract": "contracts/DeCusSystem.sol:DeCusSystem",
            "label": "recipient",
            "offset": 0,
            "slot": "0",
            "type": "t_address"
          },
          {
            "astId": 3746,
            "contract": "contracts/DeCusSystem.sol:DeCusSystem",
            "label": "amountInSatoshi",
            "offset": 0,
            "slot": "1",
            "type": "t_uint256"
          },
          {
            "astId": 3748,
            "contract": "contracts/DeCusSystem.sol:DeCusSystem",
            "label": "createTimestamp",
            "offset": 0,
            "slot": "2",
            "type": "t_uint256"
          },
          {
            "astId": 3750,
            "contract": "contracts/DeCusSystem.sol:DeCusSystem",
            "label": "txId",
            "offset": 0,
            "slot": "3",
            "type": "t_bytes32"
          },
          {
            "astId": 3752,
            "contract": "contracts/DeCusSystem.sol:DeCusSystem",
            "label": "height",
            "offset": 0,
            "slot": "4",
            "type": "t_uint256"
          },
          {
            "astId": 3754,
            "contract": "contracts/DeCusSystem.sol:DeCusSystem",
            "label": "status",
            "offset": 0,
            "slot": "5",
            "type": "t_enum(Status)3742"
          },
          {
            "astId": 3756,
            "contract": "contracts/DeCusSystem.sol:DeCusSystem",
            "label": "btcAddress",
            "offset": 0,
            "slot": "6",
            "type": "t_string_storage"
          }
        ],
        "numberOfBytes": "224"
      },
      "t_struct(Set)1827_storage": {
        "encoding": "inplace",
        "label": "struct EnumerableSet.Set",
        "members": [
          {
            "astId": 1822,
            "contract": "contracts/DeCusSystem.sol:DeCusSystem",
            "label": "_values",
            "offset": 0,
            "slot": "0",
            "type": "t_array(t_bytes32)dyn_storage"
          },
          {
            "astId": 1826,
            "contract": "contracts/DeCusSystem.sol:DeCusSystem",
            "label": "_indexes",
            "offset": 0,
            "slot": "1",
            "type": "t_mapping(t_bytes32,t_uint256)"
          }
        ],
        "numberOfBytes": "64"
      },
      "t_uint256": {
        "encoding": "inplace",
        "label": "uint256",
        "numberOfBytes": "32"
      }
    }
  }
}