{
  "address": "0xe764C67AbdCC21C7400e399B95F1E7F22e9a2ce7",
  "abi": [
    {
      "inputs": [
        {
          "internalType": "address[]",
          "name": "_assets",
          "type": "address[]"
        },
        {
          "internalType": "address",
          "name": "_eBTC",
          "type": "address"
        }
      ],
      "stateMutability": "nonpayable",
      "type": "constructor"
    },
    {
      "anonymous": false,
      "inputs": [
        {
          "indexed": true,
          "internalType": "address",
          "name": "asset",
          "type": "address"
        }
      ],
      "name": "AssetAdded",
      "type": "event"
    },
    {
      "anonymous": false,
      "inputs": [
        {
          "indexed": true,
          "internalType": "address",
          "name": "treasury",
          "type": "address"
        },
        {
          "indexed": false,
          "internalType": "address",
          "name": "asset",
          "type": "address"
        },
        {
          "indexed": false,
          "internalType": "uint256",
          "name": "amount",
          "type": "uint256"
        }
      ],
      "name": "Confiscated",
      "type": "event"
    },
    {
      "anonymous": false,
      "inputs": [
        {
          "indexed": true,
          "internalType": "address",
          "name": "keeper",
          "type": "address"
        },
        {
          "indexed": false,
          "internalType": "address",
          "name": "asset",
          "type": "address"
        },
        {
          "indexed": false,
          "internalType": "uint256",
          "name": "amount",
          "type": "uint256"
        }
      ],
      "name": "KeeperAdded",
      "type": "event"
    },
    {
      "anonymous": false,
      "inputs": [
        {
          "indexed": true,
          "internalType": "address",
          "name": "keeper",
          "type": "address"
        }
      ],
      "name": "KeeperDeleted",
      "type": "event"
    },
    {
      "anonymous": false,
      "inputs": [
        {
          "indexed": true,
          "internalType": "address",
          "name": "from",
          "type": "address"
        },
        {
          "indexed": false,
          "internalType": "address[]",
          "name": "assets",
          "type": "address[]"
        },
        {
          "indexed": false,
          "internalType": "address[]",
          "name": "keepers",
          "type": "address[]"
        },
        {
          "indexed": false,
          "internalType": "uint256[][]",
          "name": "keeperAmounts",
          "type": "uint256[][]"
        }
      ],
      "name": "KeeperImported",
      "type": "event"
    },
    {
      "anonymous": false,
      "inputs": [
        {
          "indexed": true,
          "internalType": "address",
          "name": "previousOwner",
          "type": "address"
        },
        {
          "indexed": true,
          "internalType": "address",
          "name": "newOwner",
          "type": "address"
        }
      ],
      "name": "OwnershipTransferred",
      "type": "event"
    },
    {
      "anonymous": false,
      "inputs": [
        {
          "indexed": true,
          "internalType": "address",
          "name": "previousTreasury",
          "type": "address"
        },
        {
          "indexed": true,
          "internalType": "address",
          "name": "newTreasury",
          "type": "address"
        }
      ],
      "name": "TreasuryTransferred",
      "type": "event"
    },
    {
      "inputs": [
        {
          "internalType": "address",
          "name": "asset",
          "type": "address"
        }
      ],
      "name": "addAsset",
      "outputs": [],
      "stateMutability": "nonpayable",
      "type": "function"
    },
    {
      "inputs": [
        {
          "internalType": "address",
          "name": "asset",
          "type": "address"
        },
        {
          "internalType": "uint256",
          "name": "amount",
          "type": "uint256"
        }
      ],
      "name": "addKeeper",
      "outputs": [],
      "stateMutability": "nonpayable",
      "type": "function"
    },
    {
      "inputs": [
        {
          "internalType": "address",
          "name": "",
          "type": "address"
        },
        {
          "internalType": "address",
          "name": "",
          "type": "address"
        }
      ],
      "name": "collaterals",
      "outputs": [
        {
          "internalType": "uint256",
          "name": "",
          "type": "uint256"
        }
      ],
      "stateMutability": "view",
      "type": "function"
    },
    {
      "inputs": [
        {
          "internalType": "address[]",
          "name": "assets",
          "type": "address[]"
        }
      ],
      "name": "confiscate",
      "outputs": [],
      "stateMutability": "nonpayable",
      "type": "function"
    },
    {
      "inputs": [
        {
          "internalType": "address",
          "name": "",
          "type": "address"
        }
      ],
      "name": "confiscations",
      "outputs": [
        {
          "internalType": "uint256",
          "name": "",
          "type": "uint256"
        }
      ],
      "stateMutability": "view",
      "type": "function"
    },
    {
      "inputs": [
        {
          "internalType": "address",
          "name": "keeper",
          "type": "address"
        }
      ],
      "name": "deleteKeeper",
      "outputs": [],
      "stateMutability": "nonpayable",
      "type": "function"
    },
    {
      "inputs": [],
      "name": "eBTC",
      "outputs": [
        {
          "internalType": "contract IEBTC",
          "name": "",
          "type": "address"
        }
      ],
      "stateMutability": "view",
      "type": "function"
    },
    {
      "inputs": [
        {
          "internalType": "address",
          "name": "keeper",
          "type": "address"
        }
      ],
      "name": "getCollateralValue",
      "outputs": [
        {
          "internalType": "uint256",
          "name": "",
          "type": "uint256"
        }
      ],
      "stateMutability": "view",
      "type": "function"
    },
    {
      "inputs": [
        {
          "internalType": "uint256",
          "name": "ebtcAmount",
          "type": "uint256"
        }
      ],
      "name": "offsetOverissue",
      "outputs": [],
      "stateMutability": "nonpayable",
      "type": "function"
    },
    {
      "inputs": [],
      "name": "overissuedTotal",
      "outputs": [
        {
          "internalType": "uint256",
          "name": "",
          "type": "uint256"
        }
      ],
      "stateMutability": "view",
      "type": "function"
    },
    {
      "inputs": [],
      "name": "owner",
      "outputs": [
        {
          "internalType": "address",
          "name": "",
          "type": "address"
        }
      ],
      "stateMutability": "view",
      "type": "function"
    },
    {
      "inputs": [
        {
          "internalType": "address",
          "name": "",
          "type": "address"
        }
      ],
      "name": "perUserCollateral",
      "outputs": [
        {
          "internalType": "address",
          "name": "",
          "type": "address"
        }
      ],
      "stateMutability": "view",
      "type": "function"
    },
    {
      "inputs": [
        {
          "internalType": "address[]",
          "name": "keepers",
          "type": "address[]"
        },
        {
          "internalType": "uint256",
          "name": "overissuedAmount",
          "type": "uint256"
        }
      ],
      "name": "punishKeeper",
      "outputs": [],
      "stateMutability": "nonpayable",
      "type": "function"
    },
    {
      "inputs": [],
      "name": "renounceOwnership",
      "outputs": [],
      "stateMutability": "nonpayable",
      "type": "function"
    },
    {
      "inputs": [
        {
          "internalType": "address",
          "name": "newOwner",
          "type": "address"
        }
      ],
      "name": "transferOwnership",
      "outputs": [],
      "stateMutability": "nonpayable",
      "type": "function"
    },
    {
      "inputs": [],
      "name": "treasury",
      "outputs": [
        {
          "internalType": "address",
          "name": "",
          "type": "address"
        }
      ],
      "stateMutability": "view",
      "type": "function"
    },
    {
      "inputs": [
        {
          "internalType": "address",
          "name": "newTreasury",
          "type": "address"
        }
      ],
      "name": "updateTreasury",
      "outputs": [],
      "stateMutability": "nonpayable",
      "type": "function"
    }
  ],
  "transactionHash": "0x2432d1052349936a36fcb9ccd3ad5b75a955ec0b8a1201da120a5c59e868fb41",
  "args": [
    [
      "0xAFFcb62b108D0b726a9F93aAE8e1967aD105ee47"
    ],
    "0xcEf0F2F34f9736c3Ca6Be3A444aB8358a0978040"
  ],
  "solcInputHash": "bacc995f75dbe5332b0cad8b3c08e62c",
  "bytecode": "0x60806040523480156200001157600080fd5b506040516200162b3803806200162b8339810160408190526200003491620001e3565b600062000040620000ed565b600080546001600160a01b0319166001600160a01b0383169081178255604051929350917f8be0079c531659141344cd1fd0a4f28419497f9722a3daafe3b4186f6b6457e0908290a35060005b8251811015620000c557620000bc838281518110620000a857fe5b6020026020010151620000f160201b60201c565b6001016200008d565b50600180546001600160a01b0319166001600160a01b039290921691909117905550620002d5565b3390565b6200010c8160036200014460201b62000bc41790919060201c565b506040516001600160a01b038216907f0e3c58ebfb2e7465fbb1c32e6b4f40c3c4f5ca77e8218a386aff8617831260d790600090a250565b60006200015b836001600160a01b03841662000164565b90505b92915050565b6000620001728383620001b3565b620001aa575081546001818101845560008481526020808220909301849055845484825282860190935260409020919091556200015e565b5060006200015e565b60009081526001919091016020526040902054151590565b80516001600160a01b03811681146200015e57600080fd5b60008060408385031215620001f6578182fd5b82516001600160401b03808211156200020d578384fd5b818501915085601f83011262000221578384fd5b81518181111562000230578485fd5b6020915081810262000244838201620002ae565b8281528381019085850183870186018b10156200025f578889fd5b8896505b848710156200028d57620002788b82620001cb565b83526001969096019591850191850162000263565b5080975050505050620002a386828701620001cb565b925050509250929050565b6040518181016001600160401b0381118282101715620002cd57600080fd5b604052919050565b61134680620002e56000396000f3fe608060405234801561001057600080fd5b506004361061010b5760003560e01c8063715018a6116100a2578063d209793b11610071578063d209793b146101ed578063da3f6c2414610200578063e51e119e14610208578063ee529bff1461021b578063f2fde38b1461022e5761010b565b8063715018a6146101b75780637f51bb1f146101bf5780638da5cb5b146101d257806397904e42146101da5761010b565b80635f447e04116100de5780635f447e041461017457806361d027b31461018957806368dcc4991461019157806371101871146101a45761010b565b80631df398a214610110578063298410e5146101395780633e7a68231461014e5780635e63edde14610161575b600080fd5b61012361011e366004610ef8565b610241565b6040516101309190611307565b60405180910390f35b61014c610147366004610ef8565b610253565b005b61014c61015c366004610f71565b6102a7565b61014c61016f366004610f47565b61049a565b61017c6105a4565b6040516101309190611054565b61017c6105b3565b61014c61019f366004610fb1565b6105c2565b61014c6101b2366004610ef8565b61077c565b61014c6108ea565b61014c6101cd366004610ef8565b610973565b61017c610a0e565b6101236101e8366004610ef8565b610a1d565b61017c6101fb366004610ef8565b610a4e565b610123610a69565b610123610216366004610f13565b610a6f565b61014c61022936600461101b565b610a8c565b61014c61023c366004610ef8565b610b04565b60086020526000908152604090205481565b61025b610be2565b6001600160a01b031661026c610a0e565b6001600160a01b03161461029b5760405162461bcd60e51b815260040161029290611272565b60405180910390fd5b6102a481610be6565b50565b6002546001600160a01b03166102cf5760405162461bcd60e51b815260040161029290611204565b60005b81811015610495576000600860008585858181106102ec57fe5b90506020020160208101906103019190610ef8565b6001600160a01b03166001600160a01b0316815260200190815260200160002054905083838381811061033057fe5b90506020020160208101906103459190610ef8565b60025460405163a9059cbb60e01b81526001600160a01b039283169263a9059cbb9261037892911690859060040161108c565b602060405180830381600087803b15801561039257600080fd5b505af11580156103a6573d6000803e3d6000fd5b505050506040513d601f19601f820116820180604052508101906103ca9190610ffb565b6103e65760405162461bcd60e51b8152600401610292906112a7565b6002546001600160a01b03167f1d47c187095aefccfdebc8a872d270e98511c7814959be6a804c25428d7fff7985858581811061041f57fe5b90506020020160208101906104349190610ef8565b8360405161044392919061108c565b60405180910390a26008600085858581811061045b57fe5b90506020020160208101906104709190610ef8565b6001600160a01b031681526020810191909152604001600090812055506001016102d2565b505050565b6104a5600383610c29565b6104c15760405162461bcd60e51b8152600401610292906110a5565b336000908152600660205260409020546001600160a01b0316156104f75760405162461bcd60e51b81526004016102929061114f565b6040516323b872dd60e01b81526001600160a01b038316906323b872dd9061052790339030908690600401611068565b602060405180830381600087803b15801561054157600080fd5b505af1158015610555573d6000803e3d6000fd5b505050506040513d601f19601f820116820180604052508101906105799190610ffb565b6105955760405162461bcd60e51b8152600401610292906112a7565b6105a0338383610c3e565b5050565b6001546001600160a01b031681565b6002546001600160a01b031681565b6105ca610be2565b6001600160a01b03166105db610a0e565b6001600160a01b0316146106015760405162461bcd60e51b815260040161029290611272565b60005b8281101561076657600084848381811061061a57fe5b905060200201602081019061062f9190610ef8565b6001600160a01b0380821660009081526006602090815260408083205460058352818420908516808552925290912054600154939450909290911682141561070357600061067d8683610d51565b600154604051630852cd8d60e31b81529192506001600160a01b0316906342966c68906106ae908490600401611307565b600060405180830381600087803b1580156106c857600080fd5b505af11580156106dc573d6000803e3d6000fd5b505050506106f38187610d6790919063ffffffff16565b95506106ff8282610d67565b9150505b6001600160a01b0382166000908152600860205260409020546107269082610d8f565b6001600160a01b03928316600081815260086020908152604080832094909455959094168452600585528184209084529093525090812055600101610604565b506007546107749082610d8f565b600755505050565b610784610be2565b6001600160a01b0316610795610a0e565b6001600160a01b0316146107bb5760405162461bcd60e51b815260040161029290611272565b6001600160a01b03808216600090815260066020908152604080832054600583528184209416808452939091529081902054905163095ea7b360e01b8152829163095ea7b39161080f91869160040161108c565b602060405180830381600087803b15801561082957600080fd5b505af115801561083d573d6000803e3d6000fd5b505050506040513d601f19601f820116820180604052508101906108619190610ffb565b61087d5760405162461bcd60e51b8152600401610292906111dc565b6001600160a01b03808316600081815260056020908152604080832094861683529381528382208290558282526006905282812080546001600160a01b0319169055915190917f5d27a2180685c533af64d224ad0f39b644017f0f0a22497a0fe29f7d7450674a91a25050565b6108f2610be2565b6001600160a01b0316610903610a0e565b6001600160a01b0316146109295760405162461bcd60e51b815260040161029290611272565b600080546040516001600160a01b03909116907f8be0079c531659141344cd1fd0a4f28419497f9722a3daafe3b4186f6b6457e0908390a3600080546001600160a01b0319169055565b61097b610be2565b6001600160a01b031661098c610a0e565b6001600160a01b0316146109b25760405162461bcd60e51b815260040161029290611272565b6002546040516001600160a01b038084169216907febebcc22237fa047dcfebf54b185ec126c9b24d45f4bd2a18e4fa02e07308c4090600090a3600280546001600160a01b0319166001600160a01b0392909216919091179055565b6000546001600160a01b031690565b6001600160a01b03908116600090815260056020908152604080832060068352818420549094168352929052205490565b6006602052600090815260409020546001600160a01b031681565b60075481565b600560209081526000928352604080842090915290825290205481565b60015460405163079cc67960e41b81526001600160a01b03909116906379cc679090610abe903390859060040161108c565b600060405180830381600087803b158015610ad857600080fd5b505af1158015610aec573d6000803e3d6000fd5b5050600754610afe9250905082610d67565b60075550565b610b0c610be2565b6001600160a01b0316610b1d610a0e565b6001600160a01b031614610b435760405162461bcd60e51b815260040161029290611272565b6001600160a01b038116610b695760405162461bcd60e51b8152600401610292906110d2565b600080546040516001600160a01b03808516939216917f8be0079c531659141344cd1fd0a4f28419497f9722a3daafe3b4186f6b6457e091a3600080546001600160a01b0319166001600160a01b0392909216919091179055565b6000610bd9836001600160a01b038416610db4565b90505b92915050565b3390565b610bf1600382610bc4565b506040516001600160a01b038216907f0e3c58ebfb2e7465fbb1c32e6b4f40c3c4f5ca77e8218a386aff8617831260d790600090a250565b6000610bd9836001600160a01b038416610dfe565b6000610cbe836001600160a01b031663313ce5676040518163ffffffff1660e01b8152600401602060405180830381600087803b158015610c7e57600080fd5b505af1158015610c92573d6000803e3d6000fd5b505050506040513d601f19601f82011682018060405250810190610cb69190611033565b60ff16610e16565b9050610cca8282610e5e565b6001600160a01b038086166000818152600560209081526040808320948916808452948252808320959095558282526006905283902080546001600160a01b03191690921790915590517f9cb76b51144d46005efa8364e8e73c13bed396c03ba2a905e9817b4a1011614f90610d43908690869061108c565b60405180910390a250505050565b6000818310610d605781610bd9565b5090919050565b600082821115610d895760405162461bcd60e51b81526004016102929061117d565b50900390565b600082820183811015610bd95760405162461bcd60e51b815260040161029290611118565b6000610dc08383610dfe565b610df657508154600181810184556000848152602080822090930184905584548482528286019093526040902091909155610bdc565b506000610bdc565b60009081526001919091016020526040902054151590565b60008160121015610e395760405162461bcd60e51b8152600401610292906112d0565b6012829003600a0a80610bdc5760405162461bcd60e51b8152600401610292906111b4565b600082610e6d57506000610bdc565b82820282848281610e7a57fe5b0414610bd95760405162461bcd60e51b815260040161029290611231565b80356001600160a01b0381168114610bdc57600080fd5b60008083601f840112610ec0578182fd5b50813567ffffffffffffffff811115610ed7578182fd5b6020830191508360208083028501011115610ef157600080fd5b9250929050565b600060208284031215610f09578081fd5b610bd98383610e98565b60008060408385031215610f25578081fd5b610f2f8484610e98565b9150610f3e8460208501610e98565b90509250929050565b60008060408385031215610f59578182fd5b610f638484610e98565b946020939093013593505050565b60008060208385031215610f83578182fd5b823567ffffffffffffffff811115610f99578283fd5b610fa585828601610eaf565b90969095509350505050565b600080600060408486031215610fc5578081fd5b833567ffffffffffffffff811115610fdb578182fd5b610fe786828701610eaf565b909790965060209590950135949350505050565b60006020828403121561100c578081fd5b81518015158114610bd9578182fd5b60006020828403121561102c578081fd5b5035919050565b600060208284031215611044578081fd5b815160ff81168114610bd9578182fd5b6001600160a01b0391909116815260200190565b6001600160a01b039384168152919092166020820152604081019190915260600190565b6001600160a01b03929092168252602082015260400190565b602080825260139082015272185cdcd95d1cc81b9bdd081858d8d95c1d1959606a1b604082015260600190565b60208082526026908201527f4f776e61626c653a206e6577206f776e657220697320746865207a65726f206160408201526564647265737360d01b606082015260800190565b6020808252601b908201527f536166654d6174683a206164646974696f6e206f766572666c6f770000000000604082015260600190565b6020808252601490820152731ad9595c195c88185b1c9958591e48195e1a5cdd60621b604082015260600190565b6020808252601e908201527f536166654d6174683a207375627472616374696f6e206f766572666c6f770000604082015260600190565b6020808252600e908201526d506f776572206f766572666c6f7760901b604082015260600190565b6020808252600e908201526d185c1c1c9bdd994819985a5b195960921b604082015260600190565b6020808252601390820152721d1c99585cdd5c9e481b9bdd081d5c081e595d606a1b604082015260600190565b60208082526021908201527f536166654d6174683a206d756c7469706c69636174696f6e206f766572666c6f6040820152607760f81b606082015260800190565b6020808252818101527f4f776e61626c653a2063616c6c6572206973206e6f7420746865206f776e6572604082015260600190565b6020808252600f908201526e1d1c985b9cd9995c8819985a5b1959608a1b604082015260600190565b6020808252601b908201527f617373657420646563696d616c206e6f7420737570706f727465640000000000604082015260600190565b9081526020019056fea2646970667358221220171735047450a589b162aa903de4ca75373f3960f02842f94b17901c93309a6264736f6c634300060c0033",
  "devdoc": {
    "kind": "dev",
    "methods": {
      "owner()": {
        "details": "Returns the address of the current owner."
      },
      "renounceOwnership()": {
        "details": "Leaves the contract without owner. It will not be possible to call `onlyOwner` functions anymore. Can only be called by the current owner. NOTE: Renouncing ownership will leave the contract without an owner, thereby removing any functionality that is only available to the owner."
      },
      "transferOwnership(address)": {
        "details": "Transfers ownership of the contract to a new account (`newOwner`). Can only be called by the current owner."
      }
    },
    "version": 1
  },
  "userdoc": {
    "kind": "user",
    "methods": {},
    "version": 1
  },
  "storageLayout": {
    "storage": [
      {
        "astId": 290,
        "contract": "contracts/KeeperRegistry.sol:KeeperRegistry",
        "label": "_owner",
        "offset": 0,
        "slot": "0",
        "type": "t_address"
      },
      {
        "astId": 3274,
        "contract": "contracts/KeeperRegistry.sol:KeeperRegistry",
        "label": "eBTC",
        "offset": 0,
        "slot": "1",
        "type": "t_contract(IEBTC)3819"
      },
      {
        "astId": 3276,
        "contract": "contracts/KeeperRegistry.sol:KeeperRegistry",
        "label": "treasury",
        "offset": 0,
        "slot": "2",
        "type": "t_address"
      },
      {
        "astId": 3278,
        "contract": "contracts/KeeperRegistry.sol:KeeperRegistry",
        "label": "assetSet",
        "offset": 0,
        "slot": "3",
        "type": "t_struct(AddressSet)2092_storage"
      },
      {
        "astId": 3284,
        "contract": "contracts/KeeperRegistry.sol:KeeperRegistry",
        "label": "collaterals",
        "offset": 0,
        "slot": "5",
        "type": "t_mapping(t_address,t_mapping(t_address,t_uint256))"
      },
      {
        "astId": 3288,
        "contract": "contracts/KeeperRegistry.sol:KeeperRegistry",
        "label": "perUserCollateral",
        "offset": 0,
        "slot": "6",
        "type": "t_mapping(t_address,t_address)"
      },
      {
        "astId": 3290,
        "contract": "contracts/KeeperRegistry.sol:KeeperRegistry",
        "label": "overissuedTotal",
        "offset": 0,
        "slot": "7",
        "type": "t_uint256"
      },
      {
        "astId": 3294,
        "contract": "contracts/KeeperRegistry.sol:KeeperRegistry",
        "label": "confiscations",
        "offset": 0,
        "slot": "8",
        "type": "t_mapping(t_address,t_uint256)"
      }
    ],
    "types": {
      "t_address": {
        "encoding": "inplace",
        "label": "address",
        "numberOfBytes": "20"
      },
      "t_array(t_bytes32)dyn_storage": {
        "base": "t_bytes32",
        "encoding": "dynamic_array",
        "label": "bytes32[]",
        "numberOfBytes": "32"
      },
      "t_bytes32": {
        "encoding": "inplace",
        "label": "bytes32",
        "numberOfBytes": "32"
      },
      "t_contract(IEBTC)3819": {
        "encoding": "inplace",
        "label": "contract IEBTC",
        "numberOfBytes": "20"
      },
      "t_mapping(t_address,t_address)": {
        "encoding": "mapping",
        "key": "t_address",
        "label": "mapping(address => address)",
        "numberOfBytes": "32",
        "value": "t_address"
      },
      "t_mapping(t_address,t_mapping(t_address,t_uint256))": {
        "encoding": "mapping",
        "key": "t_address",
        "label": "mapping(address => mapping(address => uint256))",
        "numberOfBytes": "32",
        "value": "t_mapping(t_address,t_uint256)"
      },
      "t_mapping(t_address,t_uint256)": {
        "encoding": "mapping",
        "key": "t_address",
        "label": "mapping(address => uint256)",
        "numberOfBytes": "32",
        "value": "t_uint256"
      },
      "t_mapping(t_bytes32,t_uint256)": {
        "encoding": "mapping",
        "key": "t_bytes32",
        "label": "mapping(bytes32 => uint256)",
        "numberOfBytes": "32",
        "value": "t_uint256"
      },
      "t_struct(AddressSet)2092_storage": {
        "encoding": "inplace",
        "label": "struct EnumerableSet.AddressSet",
        "members": [
          {
            "astId": 2091,
            "contract": "contracts/KeeperRegistry.sol:KeeperRegistry",
            "label": "_inner",
            "offset": 0,
            "slot": "0",
            "type": "t_struct(Set)1827_storage"
          }
        ],
        "numberOfBytes": "64"
      },
      "t_struct(Set)1827_storage": {
        "encoding": "inplace",
        "label": "struct EnumerableSet.Set",
        "members": [
          {
            "astId": 1822,
            "contract": "contracts/KeeperRegistry.sol:KeeperRegistry",
            "label": "_values",
            "offset": 0,
            "slot": "0",
            "type": "t_array(t_bytes32)dyn_storage"
          },
          {
            "astId": 1826,
            "contract": "contracts/KeeperRegistry.sol:KeeperRegistry",
            "label": "_indexes",
            "offset": 0,
            "slot": "1",
            "type": "t_mapping(t_bytes32,t_uint256)"
          }
        ],
        "numberOfBytes": "64"
      },
      "t_uint256": {
        "encoding": "inplace",
        "label": "uint256",
        "numberOfBytes": "32"
      }
    }
  }
}